:020000040000FA
:10000000A81600205501000021180000F51400007A
:10001000751500007F0F0000ED2F000000000000AC
:100020000000000000000000000000002F29000078
:10003000E111000000000000CF010000312A0000A3
:100040006F0100006F0100006F0100006F010000F0
:100050006F0100006F0100006F0100006F010000E0
:10006000E3110000F5110000071200006F0100000D
:100070006F0100006F0100006F0100006F010000C0
:100080006F0100006F0100006F0100006F010000B0
:100090006F0100006F0100006F0100006F010000A0
:1000A0006F0100006F010000000000006F01000000
:1000B0006F0100006F0100006F0100006F01000080
:1000C0006F0100006F0100006F0100006F01000070
:1000D0006F010000000000000000000000000000B0
:1000E000000000006F0100006F0100006F010000C0
:1000F0006F0100006F0100006F0100006F01000040
:100100006F0100006F0100006F0100006F0100002F
:100110006F010000E12F0000000000006F010000EF
:100120006F0100006F0100006F0100006F0100000F
:100130006F0100006F0100006F010000000000006F
:1001400000000000000000000000000000000000AF
:100150006F0100000648804706480047FEE7FEE7BB
:10016000FEE7FEE7FEE7FEE7FEE7FEE7FEE7FEE767
:10017000452A000079010000DFF80CD000F0C8FC2F
:100180000048004739400000A8160020EFF3108017
:1001900072B6704780F3108870471D484FF0FF011A
:1001A0000170002080F309881A48012101701A4863
:1001B0004FF08051016062B6FEE717484FF0805162
:1001C0000160704714484FF080510160704772B66B
:1001D000EFF3098028B1203880E8F00F0F49096853
:1001E000086000B50E4880475DF804EB0D480E49E5
:1001F0000A78027009480D490A680260106890E8A0
:10020000F00F203080F309884EF0040E62B670477C
:1002100022ED00E03900002004ED00E04C00002059
:10022000991E0000360000203700002054000020F6
:1002300040EA01039B0703D009E008C9121F08C068
:10024000042AFAD203E011F8013B00F8013B521EE8
:10025000F9D27047D2B201E000F8012B491EFBD25F
:1002600070470022F6E710B513460A4604461946C1
:10027000FFF7F0FF204610BD421C10F8011B0029BB
:10028000FBD1801A7047034611F8012B00F8012BAF
:10029000002AF9D1184670470FB400B58DB010A9E7
:1002A00009900B9000914FF0FF300A9000200C90C5
:1002B00005480690054807906A4609A80F9900F07E
:1002C00063FB0DB05DF814FBA5090000C309000035
:1002D0002DE9FF5F1D464FF0FF3BD5E901469146F2
:1002E0005F464FF00008A9697F1C01988847296A7A
:1002F000824688470028F6D11AF101000CD024F478
:10030000C064002E19DD600614D5BAF12B0F09D098
:10031000BAF12D0F0ED103E0584604B0BDE8F09FAE
:1003200044F48064A9697F1C01988847761E824640
:10033000002E02DDBAF1300F03D0B9F1000F26D044
:1003400032E0761EA96944F400747F1C0198884746
:100350008246002E05DDBAF1780F06D0BAF1580FAB
:1003600003D0B9F1000F10D01EE0B9F1000F02D098
:10037000B9F1100F18D1761EA96924F400747F1CFE
:10038000019888478246102002E0082000E00A20F9
:10039000814609E008FB0908761EA96944F4007447
:1003A0007F1C019888478246002E05DD494650464D
:1003B00000F0D5FA0028EDDAE96901988847A00530
:1003C00002D46FF00100A8E7E00727D1600614D53A
:1003D000600502D5C8F1000000E04046296801F13F
:1003E00004022A600968220501D5087016E0220778
:1003F00001D5088012E0086010E0286800F10401CF
:1004000029600068210502D580F8008006E02107F8
:1004100002D5A0F8008001E0C0F8008038467CE7F3
:100420002DE9FF5FD2E901A74FF0000891699946D5
:100430001446DDF838B0464601988847054659EA23
:100440000B0005D009E0A169761C01988847054694
:10045000216A284688470028F5D1681C03D05FEA46
:10046000CA7005D015E04FF0FF3004B0BDE8F09F32
:100470002068011D2160D0F800800AE05FEACA70A0
:1004800001D108F8015B7F1EA169761C019888479D
:100490000546002F1ADD681C18D0B9F1000F0DD0E9
:1004A000E81705EBD060421120F01F0059F8221028
:1004B0002A1A012090400142E0D107E0BBF1000F71
:1004C000DCD1216A284688470028D7D0E169019805
:1004D00088470AF0010050EA0B0002D1002188F899
:1004E0000010A068B84203DDBBF1000F03D017B1C4
:1004F0006FF00100B9E73046B7E780EA010210B5B6
:1005000002F00043400026D04A0023D04FEA106199
:1005100001EB1261C0F35600C2F3560240F4000032
:1005200042F40002A0FB0220A1F17F014FEA00404B
:10053000140401D000F1010050EA124001D440003F
:10054000491EC2B20C0604EBD010401C4008802AA1
:1005500002D003E0002010BD20F00100002900DAE5
:100560000020184310BD30B480EA010202F00045BB
:1005700030F0004221F0004015D0A0B1C0F3C753C5
:10058000C2F3C754C2F31601C0F31600E41A41F4D3
:10059000000140F400027D34914201D3641C00E06C
:1005A0004900002C02DA30BC002070474FF40000F4
:1005B0000023914201D3891A034340084FEA4101C5
:1005C000F7D151B1914202D14FF0004105E002D282
:1005D0004FF0010101E06FF0010103EBC45028442A
:1005E00030BC00F0FFB92DE9FE4F804681EA0300E0
:1005F000C00F0C46009021F0004123F00045B8EBFD
:100600000200A94105D24046214690461C460B46B1
:10061000024623F00040104304D14046214603B077
:10062000BDE8F08F270DC7F30A00C3F30A5102900B
:10063000401A0190402866DAC3F3130040F4801B8F
:100640000098924620B10023D2EB030A63EB0B0B18
:1006500001985946C0F14002504600F05FF9064645
:100660000D4650465946019A00F067F910EB080014
:100670006141002487EA115284EAE7731A433BD0B0
:10068000009A3AB3019A012A4FEA075210DC001B84
:1006900061EB02014FF0004202EA0752CDE900424D
:1006A000001C41F5801132462B4600F0DEF9B6E71A
:1006B000001B61EB0201001C41F5801300185B4137
:1006C0002018A2F5001747EB030140EAD570B619D0
:1006D0006D4111E06D084FEA360645EAC0754FEAF4
:1006E0000752001B61EB0201001C41F58011490813
:1006F0004FEA30000019514132462B4603B0BDE8A5
:10070000F04F00F0A5B90098012240000023D0EB83
:10071000020263EBE073009821464FEAE074B8EB05
:10072000000061EB0401E9E783F000435BE781F03F
:10073000004158E72DE9FE4F81EA030404F000442C
:1007400021F0004100944FF0000B23F0004350EAE9
:10075000010402D052EA030404D10020014603B090
:10076000BDE8F08FC3F30A54C1F30A552C44A4F238
:10077000F3340194A0FB0254C1F3130141F480113E
:10078000C3F3130343F4801301FB024400FB034E45
:10079000840A970A44EA815447EA8357A4FB07680E
:1007A00002958D0A05FB07854FEA932C04FB0C5438
:1007B0002705029D4FEA065847EA1637B5EB0805AC
:1007C0006EEB070C870E920E47EA811742EA8312FE
:1007D000A7FB0201B6EB0B0164EB00042B0D43EA0F
:1007E0000C335E1844EB1C50DA465146E7FB02011D
:1007F000C5F313044FEA0B3343EA14534FEA0432B0
:10080000019C43EA0603A4F10C040294009CCDE988
:1008100000B400F02AF9A2E7C10F80EAE0700844B2
:10082000CA079623002100F0E6B800F0004220F04D
:100830000040C10DC0F3160040F400007F2901DA2A
:1008400000207047962903DCC1F19601C84001E001
:1008500096398840002AF4D04042704700F00042A8
:1008600030F000400AD0C10D01F56071C0F31600F0
:1008700042EA0151C2084007114370470020014677
:10088000704701F0004330B421F0004150EA01020A
:1008900006D00A0DA2F56072C1F31301002A02DC32
:1008A00030BC00207047440F44EAC104C100E01886
:1008B00030BC00EBC25000F095B82DE9F05F054662
:1008C000002092469B4688460646814640241BE00F
:1008D000284641464746224600F02CF953465A46E0
:1008E000C01A914110D311461846224600F016F85E
:1008F0002D1A67EB01084F4622460120002100F027
:100900000DF817EB00094E41201EA4F10104DFDCB5
:10091000484631462A464346BDE8F09F202A04DB7C
:10092000203A00FA02F1002070479140C2F1200302
:1009300020FA03F3194390407047202A06DBCB17B7
:10094000203A41FA02F043EAE07306E041FA02F38A
:10095000D040C2F1200291400843194670473A281E
:1009600000D2303820F02002412A01D3A2F1370012
:10097000884201D34FF0FF307047000002681144F5
:100980001378016018467047D160044951610449E9
:10099000116200211161114600F0E2B87D090000EA
:1009A000550B0000426842B1016811F8013B23B1C8
:1009B000521EC0E90012184670470121C160881E0E
:1009C000704742685AB1C368016843B983688B4273
:1009D00005D0491E521CC0E90012002070474FF09C
:1009E000FF3070470029A8BF7047401C490008BF6E
:1009F00020F00100704710B4B0FA80FC00FA0CF04F
:100A000050EA010404BF10BC704749B1CCF1200486
:100A100021FA04F411FA0CF118BF01212143084313
:100A2000A3EB0C01CB1D0106000A002BBEBF00206A
:100A300010BC704700EBC35010440029A4BF10BC89
:100A40007047401C490008BF20F0010010BC7047EF
:100A500010B5002B08DA401C41F1000192185B41EF
:100A60001A4301D120F0010010BD2DE9F04D92464E
:100A70009B4611B1B1FA81F202E0B0FA80F2203265
:100A80009046FFF74BFF04460F4640EA0A0041EA52
:100A90000B0153465A46084303D120463946BDE868
:100AA000F08D114653EA010015D0C8F140025046BE
:100AB00000F040F805460E46504659464246FFF7BC
:100AC0002DFF084301D0012000E00020054346EA45
:100AD000E0762C4337430A984FEA4453A0EB0800D2
:100AE0004FEAD4240A304FF0000244EA47544FEA58
:100AF000D72502D500200146D1E70105101969412B
:100B0000DDE9084500196941BDE8F04DA0E70000A6
:100B1000064C074D06E0E06840F0010394E807004A
:100B200098471034AC42F6D3FFF72AFB6848000020
:100B300088480000202A04DB203A21FA02F0002134
:100B4000704721FA02F3D040C2F1200291400843DD
:100B500019467047C0B24FF4F05100F097B9000049
:100B60002DE9F34F8BB04FF0000801F10C000C465B
:100B70004FF0010B46460DF1080A01906269012110
:100B80000198904705002DD0252D2CD0216A88474B
:100B9000C0B16269012101989047216A8847002805
:100BA000F7D1411E62690198904700E0761CA16967
:100BB0000B988847216A88470028F7D1E1690B988C
:100BC0008847DBE7A1690B9888470746A84201D10F
:100BD000761CD3E7E1690B9888477F1C02D1B8F1F6
:100BE000000F6FD045E1002762693D463946019804
:100BF00090472A2804D16269012101989047012574
:100C0000DFF884926269012101989047A0F13001D8
:100C10000A290AD24F45E5DC07EB870100EB4107C3
:100C2000303FDFD445F01005ECE7E90601D46FF062
:100C300000476C280AD04C2814D0682815D06A28A0
:100C40000DD074281CD07A281AD01DE062690121C9
:100C5000019890476C2802D045F0040514E045F057
:100C600002050DE045F020050AE0626901210198C6
:100C70009047682802D045F0080505E045F4006576
:100C80006269012101989047C4E9015765283DD068
:100C900019DC582879D00CDC452837D004DC25280D
:100CA00026D0412831D131E046282FD047282CD1F9
:100CB0002CE05B287FD0612828D063287BD0642873
:100CC00023D159E0CFE06F2847D008DC66281DD03B
:100CD00067281BD0692821D06E2816D127E07028FC
:100CE00044D0732867D0752846D078280DD14CE0C1
:100CF000A1690B988847054625283FF469AFE1694B
:100D00000B9888476D1C3FF46AAFB2E023466A46F1
:100D10006FF001000B99AFF300809DE045F04000BB
:100D20006060A80723464FF0000235D43DE02068FC
:100D300000F1040121600068290501D506701DE756
:100D4000290701D5068019E7A90704D54FEAE671FE
:100D5000C0E9006112E7066010E745F040006060FE
:100D6000A80723464FF0080216D41EE040F60E01F5
:100D700025EA0100606016E045F040006060A807C9
:100D800023464FF00A0207D40FE045F040006060B0
:100D9000A80708D5234610226FF001000B99AFF386
:100DA000008059E007E0234610226FF001000B9904
:100DB000FFF78EFA50E04FF000094F464B4663288C
:100DC00002D05B2806D040E0E80601D40120A060F4
:100DD00001273AE062690121019890475E2805D118
:100DE0004FF001096269494601989047216939B974
:100DF00000210B46524642F82130491C0829FADBF3
:100E0000B0B3216969B9C11700EBD1614B110AEB8D
:100E1000830221F01F01411A012013688840034317
:100E2000136062690121019890475D28E8D1B9F10A
:100E3000000F09D00020514651F82020D24341F83C
:100E40002020401C0828F7DB02AB224600976FF0F9
:100E500001000B99FFF7E4FA00280CDA401C08D1D6
:100E6000BBF1000F05D04FF0FF300DB0BDE8F08FA3
:100E7000FFE74046F9E7E90701D108F10108064418
:100E80004FF0000B7AE60000CCCCCC0C7F2801D9C7
:100E9000002208E0064A02EB5002C007127800D197
:100EA000120902F00F020120904008407047000034
:100EB0002848000010B50022072802D9012208386E
:100EC000C0B2064B03EB8202136880000F248440FB
:100ED000A34381401943116010BD0000002002406F
:100EE0002DE9F0479146164A4FF0FF0A02EBC00584
:100EF000002200240AFA02F02346084219D04FF0DB
:100F0000010C00200CFA02FC4FF00F0821FA00F649
:100F100016EA0C0F06D0860008FA06F73C4309FAD9
:100F200006F73B43401C0828F0D32868A043184329
:100F300028602D1D0832082ADBDDBDE8F08700009F
:100F400020200240F0B58BB00F4604461D461646E1
:100F500028216846FFF785F900208DF800008DF8FC
:100F6000014039460DF10200FFF78DF9ADF822502E
:100F7000ADF82460684601F0EAFA0BB0F0BDFEE778
:100F800040224FF4F8104FF44041012300F052B8D2
:100F900070B5124E0446706B850F00F023F8206088
:100FA000012D05D00E48022D02D0032D00D00020C7
:100FB0006060316AC840A0603168C1F3015120FA15
:100FC00001F1E160B16AC1F30241072902D0C840D2
:100FD000206170BD0621B0FBF1F0F9E70080084008
:100FE00000127A000C49D1F8A400002813D0086A36
:100FF0000A48D1F8FC1301290DD0094A9169C1F3BF
:10100000C55101B940219269C2F3415301229A406E
:10101000B0FBF2F0484370470000104300127A0022
:101020000080084000B585B06846FFF7B1FF03981F
:1010300005B000BDF0B5074F7C6AFD6A3E6B844386
:101040008D43964313B104430D4316437C62FD6206
:101050003E63F0BD0080084010B5022002F046FF5C
:10106000652806D004480478022003F023F82046BF
:1010700010BD002010BD00000C07002070B500243A
:1010800025464FF480610A4800F0BCF906460EB9C7
:101090006D1CEDB2052002F0E6FE641CE4B20A2CE1
:1010A000F5D3032D01D3012070BD002070BD0000D9
:1010B00000200B40014800787047000079000020B4
:1010C000014800787047000089000020014800783E
:1010D00070470000680000202DE9F04100240D4F0A
:1010E00025464FF480563146384600F08BF918B14A
:1010F000012801D16D1CEDB2052002F0B4FE641C84
:10110000E4B20A2CEFD3052D02D30120BDE8F08113
:101110000020FBE700200B402DE9F04100240C4F9C
:1011200025464FF400563146384600F06BF908B9B1
:101130006D1CEDB2052002F096FE641CE4B20A2C90
:10114000F1D3052D02D30120BDE8F0810020FBE79B
:1011500000200B400148007870470000800000200C
:101160001FB5044602A803F003F8DDE90201CDE94A
:101170000001684602F002FF064940B1019848604C
:1011800000980860DDE90001C4E900011FBDD1E954
:101190000001F9E76000002038B578240B460246CC
:1011A0008DF8004069460120FFF7CCFEC0B238BD83
:1011B00001460079094B4979032802D0022806D05C
:1011C0000AE009B1012200E000221A7004E009B12E
:1011D000012200E000225A7000F0E8B91800002057
:1011E000704710B5002000F00FF8BDE81040012056
:1011F00003F0CAB810B5012000F006F8BDE81040B1
:10120000012003F0C1B870470121814001484164C9
:1012100081647047004002402DE9FF41304F0022B9
:101220000221384600F0DAF8012202210420FFF7FB
:1012300057FE00220221384600F0B8F801220221B0
:10124000384600F0C3F801240226264D00948DF89C
:101250000C6002958DF80440684600F045F80221C4
:1012600001220846FFF73CFE04210120FFF722FE81
:101270000121084600F046F8092000F0D6FA0022C5
:101280000121384600F0AAF8012211460420FFF798
:1012900027FE00220121384600F088F8012211467D
:1012A000384600F093F8002000908DF80C6002950D
:1012B0008DF80440684600F017F80122114602201C
:1012C000FFF70EFE04210020FFF7F4FD01210020AE
:1012D00000F018F8082000F0A8FABDE8FF8100002F
:1012E00000800B4080FC0A000179027BC90741EABB
:1012F0000271826800681143014A42F82010704769
:1013000000400240054B01228240186C012902D0A6
:101310009043186470471043FBE700000040024010
:1013200010B50A4B0A4C4FF4006138B101280BD1BB
:101330000022184600F06BF8012004E00122184654
:1013400000F065F80020207010BD000000200B4068
:101350007900002070B54FF400640022214601207E
:10136000FFF7BEFD064D01222146284600F01EF87B
:1013700021462846BDE87040012200F048B8000030
:1013800000200B4010B5084C00220121204600F03F
:101390003EF8C82002F067FD20460122BDE810405B
:1013A000114600F034B8000000200B40002A02680B
:1013B00001D00A4300E08A4302607047002A426974
:1013C00001D00A4300E08A4342617047002A426824
:1013D00001D00A4300E08A434260704742B1012ACB
:1013E00009D082688A438260C2688A43C2607047BB
:1013F00082680A43F7E7C2680A43C26082688A4388
:1014000082607047C069084000D0012070470AB16F
:10141000416270478162704710B5002001F0A4F965
:10142000032001F0ADF9FF2001F0AAF90446FF20E6
:1014300001F0A6F9012001F097F904F0030010BDB6
:10144000044918B1012803D000207047487870473C
:10145000887870477C0000200148007870470000C1
:101460007C0000202DE9F04105461348465D103010
:1014700030F815400D38475D193050F82680304659
:1014800001F00CFF3A4621463046FFF729FD284679
:1014900000F014F8214602224046FFF79FFF214644
:1014A00001224046FFF78AFF21464046BDE8F04151
:1014B0000122FFF77BBF0000D84600000549054A1E
:1014C000103A31F81010105C1C3252F82000816282
:1014D00070470000E84600000549054A103A31F817
:1014E0001010105C1C3252F820004162704700005E
:1014F000E8460000FEE70000F8B50D46064600F09D
:1015000041FF4FF4FA74204602F0ADFC174B1878F7
:1015100008BB002000F0EFFF304600F0C9FF2A466C
:101520000021012000F064FF11A0009010A310A280
:101530000FA1002000F08AFF00F048FF00F034FF08
:10154000204602F090FC204602F08DFC204602F07E
:101550008AFC01F048F8204602F085FC204602F0A3
:1015600082FC204602F07FFC0120F8BD7C000020B8
:1015700030000000FEE7000010B50A4B0A4C4FF4A3
:10158000004138B101280BD100221846FFF73FFF78
:10159000012004E001221846FFF739FF00202070E7
:1015A00010BD000000200B408900002010B50C4643
:1015B000012806D002280ED0032813D004281ED1FB
:1015C00017E010A001F08AFF2046FFF7A9FE204691
:1015D000FFF7D2FF13E00FA001F080FF204601F0DB
:1015E00043F80CE00FA001F079FF204600F058F816
:1015F00005E010A001F072FF2046FFF791FE0020E9
:1016000010BD00004845415420636F6E74726C0D2C
:101610000A0000005357494E4720636F6E74726C86
:101620000D0A0000706C617920636F6E74726C0D2E
:101630000A00000046414E20636F6E74726C0D0A02
:101640000000000010B501F045FD01F069FA01F05D
:10165000CFFC00F08FF8FFF77DFE00F0F9FD00F001
:101660000FFE01F011F800F0DBFD02F0C1FFBDE854
:10167000104002F0B7BA000010B5074C207828B12E
:1016800000224FF480710548FFF7C1FE0120A070D1
:101690000020207010BD00006800002000200B40DA
:1016A0002DE9F04101462F48002601252C4C0278F7
:1016B0004FF4FA7706294BD2DFE801F02127061212
:1016C0003D0302F0E1FC48E0057001224021204684
:1016D000FFF79DFE384600F0E1FB002240210AE0C2
:1016E0000570012220212046FFF791FE384600F0C8
:1016F000D5FB002220212046FFF789FE2DE004467D
:101700005AB302F0C1FC267027E0012A25D0074613
:10171000807860B114A001F0E1FE3878012804D08F
:10172000012211022046FFF772FEBE7001E002F0B6
:10173000ABFC3D7011E00122550229462046FFF71F
:1017400066FE4FF47A7000F0A9FB00222946D2E72A
:10175000072902D9084602F087FE0020BDE8F08183
:1017600000200B40680000206F70656E2E2E2E0D3D
:101770000A00000070B5002240210120FFF7B0FBF5
:10178000264C012240212046FFF710FE0022202196
:101790000120FFF7A5FB012220212046FFF706FECE
:1017A000A515002229460120FFF79AFB01222946B0
:1017B0002046FFF7FBFD6615002231460120FFF7AA
:1017C0008FFB012231462046FFF7F0FD00228021E9
:1017D0000120FFF785FB002280212046FFF7E6FD70
:1017E000012280212046FFF7F1FD00224021204602
:1017F000FFF70DFE002220212046FFF708FE002201
:1018000029462046FFF703FE002231462046FFF717
:10181000FEFDBDE87040FFF72FBF000000200B4029
:1018200070470021084600F00DB800F01F020121AA
:10183000914040094FF0E02202EB8000C0F8001117
:1018400070470000024A114001430248016070479E
:1018500080FFFF1F08ED00E030B587B000F080F892
:10186000364C0023A36223706370A3716371A3607D
:101870006361237104F110011846401CC0B201F8E5
:10188000013B0428F9D3A370E37023624FF4D261C3
:101890002B48A36100F0F5FB29488021803800F037
:1018A000F0FB2748002200F150013F25416180F8FC
:1018B000405080F84130521C50305031D2B2142A7E
:1018C000F4D3436180F8405080F841301C48636293
:1018D000E0614FF4A071A0F5707000F0D2FB1948E0
:1018E000002200F1200103704160C5730374521C93
:1018F0002030203192B2092AF5D303704360C573BA
:1019000003741048E060802102910320CDE9033088
:101910000D4A4FF6FF70CDE900021F2302F5FE725B
:1019200000210A4800F05EF905AA09A11F2000F075
:101930003DFA07B0BDE8304000F013B83400002095
:10194000B00D0020F0090020300B00200122000023
:1019500075432F4F532D49492049646C65000000A1
:101960007047704704494879012804D10878FF2856
:1019700001D2401C087070473400002070B5144C30
:101980006079012822D1FEF701FC0546207820B1BC
:10199000401E10F0FF00207013D1607888B900F06D
:1019A0009DFBE078A17888420BD00A4951F82010BD
:1019B0002162C86A401CC862A068401CA060FEF793
:1019C00001FC2846BDE87040FEF7E4BB70BD000096
:1019D00034000020300D002070B505460D48007819
:1019E00008B1002070BDFEF7D1FB0B490C680CB1AB
:1019F00062680A60FEF7CEFB54B103202070258197
:101A000000203F216060E1732074204600F02EFB2F
:101A1000204670BD34000020400000202DE9F04732
:101A20000546007889461446032801D0012008E0C5
:101A30002548007808B1022003E02448007818B156
:101A40000D201070BDE8F087FEF7A0FB0646288940
:101A5000002730B1401E28813046FEF79BFB2770DF
:101A6000F0E7DFF86C80D8F8000010F8221F41F092
:101A700001010170477020F8029C284600F0D2FA5C
:101A80003046FEF787FB00F005FBFEF77FFB0646BE
:101A9000D8F8000090F8231031B1022906D0294669
:101AA00000F0B0FA0A2002E0277001E00E2020705A
:101AB000D8F800001C308771C77107603046BDE858
:101AC000F047FEF767BB000034000020350000201F
:101AD0004C00002070B504460078032801D0012096
:101AE00070BDFEF753FB0546A07A58B100230122D2
:101AF0001946204600F054FA2846FEF74BFB00F04A
:101B0000C9FA09E020894FF6FF71884206D2401CCD
:101B100020812846FEF73EFB002070BD2846FEF7D8
:101B200039FB322070BD000010B5094C60790028E7
:101B30000CD100F0D3FAE0780649A07051F82000EB
:101B40002062A061BDE81040FEF727BB10BD000079
:101B500034000020300D0020704700002DE9FE43C6
:101B60001C4616460F468046FEF710FB1A490978B8
:101B700021B1FEF70FFB3C20BDE8FE83174D55F861
:101B8000241019B1FEF706FB2820F5E7012145F8DE
:101B90002410FEF7FFFA002332463946404600F093
:101BA00041F900260146009601963346324620460A
:101BB000029600F0BBFA070007D0FEF7E7FA45F8F7
:101BC0002460FEF7E7FA3846D6E705480078012892
:101BD000F9D100F05FFAF6E734000020300D002064
:101BE000390000202DE9FF4F83B01C46DDE9137654
:101BF000DDE911A891468B46FEF7C8FA1B49097822
:101C000029B1FEF7C7FA3C2007B0BDE8F08F184DA8
:101C100055F8241019B1FEF7BDFA2820F4E7012188
:101C200045F82410FEF7B6FA33464A46594603985B
:101C300000F0F8F8CDF80080CDE901760146524673
:101C40002046109B00F072FA060008D0FEF79EFABC
:101C5000002145F82410FEF79DFA3046D4E70548E8
:101C600000780128F9D100F015FAF6E734000020D9
:101C7000300D002039000020704700002DE9F047AA
:101C800005463F48007810B14020BDE8F0871F2D81
:101C900005D0FEF77BFA0646FF2D02D005E03E2078
:101CA000F3E73848006890F82450DFF8DC9059F8E2
:101CB00025405CB1012C0ED094F82610334A94F8DC
:101CC0002730505C984350540AD00FE03046FEF75E
:101CD00061FA4320D9E73046FEF75CFA3D20D4E7AD
:101CE0002B4894F82820017891430170E16911B1E3
:101CF000204600F087F94FF00008A4F82080254F17
:101D000084F8228084F823803878FF2801D2401C90
:101D100038703046FEF73EFA00F041F9FEF736FA29
:101D20000646387808B1401E3870204600F03CF86E
:101D300019490878401E087049F82580A069414675
:101D4000A0B162694261D4E9050282611348026868
:101D5000626104603F2004F8400F30466170FEF776
:101D600019FA0F480078012806D007E060690D4A8B
:101D7000816160691060E9E700F08CF9002084E778
:101D8000340000204C000020300D002044000020D2
:101D900038000020350000203A00002050000020CC
:101DA0003900002058000020704770472DE9F041AD
:101DB0000546194888461446007818B1122010705C
:101DC000BDE8F081FEF7E2F90646FF2D03D1134886
:101DD000006890F824501248432750F825505DB110
:101DE000012D09D0404600F097F90F2809D9304657
:101DF000FEF7D0F941200DE03046FEF7CBF9277011
:101E0000DEE7414605F1400000F078F93046FEF784
:101E1000C1F900202070D3E7340000204C000020DE
:101E2000300D00204FF080731360131F1860A2F173
:101E30000800184B0360001F4FF012330360001FAF
:101E40004FF003330360001F4FF002330360001FA5
:101E50005B100360001F0160001F4FF01131016033
:101E6000001F19010160001F4FF009310160001FC0
:101E7000D9000160001F4FF007310160001F4FF0D3
:101E800006310160001F4FF0053101609900001F0D
:101E9000016070471D2200007047000070B50446C5
:101EA0001148007800281DD1002C1BD0FEF76EF9D8
:101EB00003460E480E4D016891F8262091F82760E0
:101EC000A85CB043A85405D10A4891F8285002787C
:101ED000AA4302700C841846FEF75CF9BDE8704016
:101EE00000F0D8B870BD0000340000204C00002085
:101EF00044000020380000202DE9F04100F04EF8A9
:101F0000FEF744F9244DA96A491CA962FEF742F97B
:101F1000687901283ED1E8790126002720B10128FF
:101F200038D0022802D0EF716C6A2FE0EE71FBE727
:101F3000FEF72CF9218C31B3A1F101010904090C40
:101F4000218420D194F8221011F0370F06D021F00F
:101F5000370184F8221084F8236001E084F82370AC
:101F600094F8221009070ED494F828102A790A4B05
:101F70001143297194F82610103394F827C05A5C45
:101F800042EA0C025A546469FEF704F994F82400FA
:101F90001F28CDD1BDE8F081340000207047704784
:101FA00070B50146847A14484FF00006045D01EBD9
:101FB0000405ED7A405D00EBC400C5B20F4850F84F
:101FC000250020F8206F867826EA02068670C37006
:101FD000A0F1200032070BD4094A90F82830167976
:101FE00033431371103290F82760135D3343135558
:101FF00000F008F8284670BD28470000300D00208A
:102000003400002010B590F8262090F827408B1857
:10201000DA7AA243DA7204D18A7A90F828008243ED
:102020008A7210BD30B5104C00F10B02A16941F865
:102030001C0F8B7AC97A9D5C0D439D54A169827AED
:1020400026318B781A438272087804F110034D7898
:102050001A5C2639AA431A5404D191F82810207921
:102060008843207130BD00003400002000228272BD
:102070000B301146491CC9B200F8012B0429F9D3D1
:102080007047002203E0491E00F8012B89B20029A5
:10209000F9D1704770B5FEF779F80E4C05462078F7
:1020A00098B9607888B900F019F8E078A17888428A
:1020B0000BD0094951F820102162C86A401CC8623F
:1020C000A068401CA060FEF778F82846BDE8704084
:1020D000FEF760B834000020300D00200649054AA4
:1020E00001F110030879105C1B5CD25C02EBC000AC
:1020F000C87070472847000034000020002204E028
:10210000491C521C00F8013BD2B20B78002BF7D1CE
:1021100000210170104670470146002002E0491C72
:10212000401CC0B20A78002AF9D170472DE9F05F4F
:102130009846DDE90ABA91460D460646FEF726F8AE
:102140002D4FFC69002C53D00C34A168F961FEF7C7
:1021500021F844F80C5C26760025A575E575A58266
:10216000C4F800B044E902A90C98A080A4F8068045
:10217000F0086577A076012306F0070103FA00F264
:102180006176227703FA01F2E27625612562A56283
:102190006562E5623F20256384F8340084F8355099
:1021A0000C3C2046FFF7D8FC2046FFF765FDFDF705
:1021B000EDFF0146114840F82640786AC4E905055C
:1021C00000B184617C6226343A79A078104338717A
:1021D000094A207810326478135C23431354B87989
:1021E000401CB8710846FDF7D5FF0020BDE8F09F00
:1021F000FDF7D0FF4220F9E734000020300D002029
:10220000054CFDF7C3FF6169491C6161FDF7C2FF21
:10221000FFF7CBFDF5E7000034000020FEE70000EB
:1022200070B500224FF4006421461046FEF758FEB8
:10223000064D002221462846FFF7B8F821462846D9
:10224000BDE870400122FFF7C1B8000000000B405C
:1022500070B54FF48054002221460120FEF740FE65
:10226000064D002221462846FFF7A0F821462846C1
:10227000BDE870400122FFF7A9B8000000200B4024
:1022800070B54FF40054002221460120FEF728FECD
:10229000074D002221462846FFF788F801222146F3
:1022A0002846FFF793F803490020087070BD00002E
:1022B00000200B408800002010B500231A4605E0DE
:1022C00010F8014B521C23449BB292B28A42F7D3BE
:1022D000D8B210BD2DE9F0411646040088461FD043
:1022E00012A001F0FBF8AA202070301D010241EA83
:1022F0001020012711496770608008782071401C08
:10230000087000256571A5710621601CFFF7D4FFD8
:10231000E071277284F80980A57226B1E77203E0A4
:102320000120BDE8F081E5720020FAE744454255FE
:102330004720307825780D0A000000007A00002040
:1023400070B5040019D0AA20207050BA00250C4A9C
:102350006570608010782071401C1070657101F00C
:102360003F00A07113B140F04000A0710621601C35
:10237000FFF7A2FFE071002070BD012070BD0000DA
:102380007A00002000B589B020216846FDF769FF7A
:10239000684600222321FFF79DFF0C21684600F0CC
:1023A00025FA09B0002000BD00B589B0202168469B
:1023B000FDF757FF684600220121FFF78BFF0C2134
:1023C000684600F013FA09B0002000BD00B589B0DE
:1023D00020216846FDF745FF684600220421FFF7EB
:1023E00079FF0C21684600F001FA09B0002000BD19
:1023F000F0B599B00E460746144660216846FDF7D1
:1024000030FF8DF80C706D468DF80D602046FDF79D
:1024100033FF8DF80E002046FDF72EFF02460DF12A
:102420000F002146FDF704FF2046FDF725FFC01CE5
:1024300084B2224642212846FFF74CFF0C34A1B259
:10244000684600F0D3F919B00020F0BD2DE9F04343
:1024500099B00D4607469946904660216846209EF1
:10246000FDF7FFFE6C468DF80C700DF10D0128464E
:1024700000F0B0FA11250DF11101404600F0AAFA62
:102480000DF11501484600F0A5FA0DF1190130468D
:1024900000F0A0FA1D262A4660212046FFF71AFF09
:1024A0003146684600F0A2F919B00020BDE8F0837B
:1024B00070B590B0064640216846FDF7D2FE6D46E5
:1024C0003046FDF7D9FE84B28DF80C400DF10D00B9
:1024D00022463146FDF7ACFE641CA4B222464121DF
:1024E0002846FFF7F7FE0C34A1B2684600F07EF9EB
:1024F00010B0002070BD10B588B004462021684699
:10250000FDF7AFFE8DF80C4068460D2401224021F6
:10251000FFF7E0FE2146684600F068F908B00020A9
:1025200010BD10B588B0044620216846FDF799FE1D
:102530008DF80C4068460D2401222A21FFF7CAFEBF
:102540002146684600F052F908B0002010BD30B5B1
:1025500091B0044640216846FDF783FE20788DF84F
:102560000C0060788DF80D0004208DF80E006D468B
:102570000DF10F01A01C00F02DFA608C0B2240BA67
:10258000ADF81300A08C172440BAADF8150028212F
:102590002846FFF79FFE2146684600F027F93228BB
:1025A00002D0002011B030BD0120FBE7F0B5A9B08A
:1025B0000F4606461546A0216846FDF752FE6C46BA
:1025C0002A46394602A8FDF733FE00232A46314643
:1025D0002046FFF7B5FE0835A9B2684600F060F95D
:1025E00029B00120F0BD00B589B020216846FDF773
:1025F00038FE684600222021FFF76CFE0C21684659
:1026000000F0F4F809B0002000BD0000F0B5094F5B
:102610003C687D68BE6884438D43A7F58277964306
:1026200013B104430D43164307F582773C607D6088
:10263000BE60F0BD0481084070B50C46054605211A
:10264000002000F0F1FC65280BD0012001F04EFCC9
:102650002146284601F0ECFA012001F02BFD20462E
:1026600070BD662070BD000048B1012205490128F7
:1026700003D003D90A7001F095BE0A70704700F0CC
:1026800057B800008000002070B500224FF400759C
:1026900029461046FEF724FC164C00222946204607
:1026A000FEF784FE012229462046FEF78FFE002217
:1026B000251529461046FEF713FC00222946204620
:1026C000FEF774FE012229462046FEF77FFE002217
:1026D000A51529461046FEF703FC0122294620468F
:1026E000FEF764FE00F024F8BDE87040042001F01D
:1026F00059BE000000000B4070B50B4D4FF48074C4
:10270000002221462846FEF782FE4FF4487001F071
:10271000AAFB012221462846FEF779FE03484068BD
:10272000BDE8704001F09FBB00000B40800000201E
:1027300010B5012211020348FEF769FE024900208C
:10274000087010BD00000B408000002010B5FFF79E
:10275000D3FF044C01E0FFF7CFFF20780028FAD127
:1027600010BD000080000020044B08B1012200E0F1
:10277000002204211846FEF74ABE000000200B404C
:102780002DE9F04106460024012001F06FFB164FB1
:102790000025300601D5012200E00022082138463C
:1027A000FEF735FE7006060E012202213846FEF7BE
:1027B0002EFE012001F05AFB6006040E102138465F
:1027C000FEF720FE08B1641CE4B200220221384664
:1027D000FEF71DFE012001F049FB6D1CEDB2082D36
:1027E000D7D32046BDE8F08100200B402DE9F04111
:1027F0004FF000070D4606003C4605D00020FFF7CD
:10280000B3FF4FF6FF7815E01AA000F067FE002036
:10281000BDE8F081641CFEF7FFFD0746052001F0CE
:1028200022FB322C04D91BA000F058FE3220EFE727
:10283000474501D0B807EDD50120FFF795FFBDB1A1
:10284000A80703D0ED1C4FF6FC7005400020FFF7F1
:102850008BFF9120FFF794FF002404E0305DFFF729
:102860008FFF641CA4B2AC42F8D30120FFF77CFFB9
:102870000120CDE764656275672053504954784361
:102880006D642062756666203D3D204E554C4C0DB2
:102890000A00000054494D454F55540D0A000000F0
:1028A0002DE9F0474FF000040E460700254619D0E9
:1028B0000020FFF759FF4FF6FF7918E06D1CADB20D
:1028C0000320FFF75DFFFF20FFF75AFF40EA0408EF
:1028D000FF20FFF755FF48EA0024012001F0C3FA6A
:1028E000322D02D90020BDE8F0874C4501D0E00729
:1028F000E4D00120FFF738FFBEB1B00703D0F61CCB
:102900004FF6FC7006400020FFF72EFF9020FFF7E7
:1029100037FF002404E0385DFFF732FF641CA4B2E7
:10292000B442F8D30120FFF71FFF0120DBE7704717
:102930004FF0E0210428086903D020F0040008616A
:10294000704740F00400FAE74FF0E02130B1012871
:10295000086906D020F001000861704700208861F6
:10296000704740F00100F7E74FF0E02100280869C8
:1029700002D040F0020001E020F002000861704740
:102980004FF0E0214861704770B50D4604460221C2
:10299000084600F049FB012001F0A8FA294620462C
:1029A00001F070F9012001F085FB284670BD0000A0
:1029B00010B50446022001F099FA652806D00448B3
:1029C0000470022001F076FB204610BD002010BDEF
:1029D0000C07002070B588B005AA0D46009207AB21
:1029E00006A9CDE9011303AE0024331D32460CA124
:1029F000FDF752FC0146601E042905D005290CD1C3
:102A00009DF81C100A2908D156F82420FF2A04DC5E
:102A10002A55641C042CF7DB002008B070BD0000B0
:102A200025752E25752E25752E257525630000002C
:102A300010B5FEF797FFFFF75FFABDE81040FEF70D
:102A40009DBF000013480121C0F80013124AC2F8CC
:102A5000A810D2F80831002BFBD0002313624FF0EE
:102A600010638361C2F8A410D2F80431002BFBD0AC
:102A70000A4A136823F00703DB1C136001624268F3
:102A800022F00302521C4260426BB1EB927FFBD1F9
:102A9000704700000080084000001043000208401A
:102AA00007A000F01BFD00F013FB00F0DBFA00288C
:102AB000F9D1C821022001F0E1FB00F08BFFF8E71B
:102AC0006465616C696E670D0A00000004A000F087
:102AD00005FDFEF73FFB0028FBD0FFF737FEF8E7C8
:102AE000726F636B696E670D0A00000009A000F049
:102AF000F5FC0A20FFF7D2F901F0D4F90028F8D04C
:102B0000002001F041FC00F03FFB0A21012001F010
:102B1000B5FBEEE772656164696E670A000000004C
:102B200010B5002240211046FEF7DAF90D4C0122C3
:102B300040212046FEF73AFC002280211046FEF795
:102B4000CFF9002280212046FEF730FC01228021AF
:102B50002046FEF73BFC044840F6C411416001608A
:102B600010BD000000000B4060000020806908409C
:102B700000D00120704770B505460C46C88889888A
:102B80002A690843218922F01F0211430843286162
:102B9000686A618920F0030008436862FEF742FA20
:102BA0002168B0FBF1F0A86370BD006880B2704787
:102BB0000029C16802D041F4007101E021F40071E4
:102BC000C1607047016070470029C16802D041F4BC
:102BD000807101E021F48071C16070472DE9F041FE
:102BE000044600F0D3F90546800706D5E16C09B12B
:102BF000206D8847022000F0C9F8E8060ED51020A5
:102C000000F0C4F894F83200022807D300F0C6F9A7
:102C100014F8320F6070032004F8320968074FF08F
:102C200000061FD52034701E676E206026746674FF
:102C3000207D20F0020020750420A074A66100F021
:102C4000ABF800F0B3F90020616E00F003F93868CA
:102C500000F084F9616A203C09B1A06C8847042027
:102C600000F094F8280708D500F0A0F994F8330094
:102C700084F83200082000F089F8E8054FF48077E6
:102C80007AD5002000F0D6F80546800522D52046EA
:102C900000F094F984F824602662207810F0600037
:102CA00002D0202808D103E0204600F053FB03E0C7
:102CB000216E204601B1884794F82400012817D0DE
:102CC00002281ED0002000F015F94FF400710020FA
:102CD00000F078F8A8072ED50221002000F072F845
:102CE000206A401C27D094F8240002280FD022E04C
:102CF000E088216A814200DD2062204600F0EEFA81
:102D0000E3E700221146104600F004F9DDE7402217
:102D10000020E16900F0CEF8E1690144E161216A37
:102D2000081A206207D1012084F82400A16A11B199
:102D3000E06A8847A662E80606D5204600F0CEFA8B
:102D40001021002000F03EF8384600F01FF813E094
:102D5000284600F06FF810F0120F0DD0122128460F
:102D600000F030F807FA05F000F010F804EB8500E9
:102D7000416E09B12846884700F008F900F0F6F8DE
:102D80000546401CE4D1BDE8F0810000014988609F
:102D90007047000000800A400021202001230A46DD
:102DA000FFF734BC10B500F091FB016801F0090198
:102DB000016010BD10B500F089FB016801F024012D
:102DC000016010BD10B50C4600F080FB846010BDA2
:102DD00010B500F07BFB00690249C0F3090008440C
:102DE00010BD000000A00A4070B5054600F06EFB63
:102DF0000446284600F00AF82169C1F30901084495
:102E00000149084470BD000000A00A4010B500F060
:102E10005DFB0069C0F3892010BD10B500F056FBC2
:102E200001690068C90002D5C0F3800010BDC0F37D
:102E3000401010BD10B500F049FB416880680840A3
:102E400010BD10B50C4600F041FBC068E040C0F377
:102E5000080010BD70B50C46054600F037FB04EBCA
:102E6000C5014A680261896841604FF0FF318160A5
:102E70002846BDE8704000F035B82DE9F04116460F
:102E80000F46050011D00021FFF7DBFF0446B042DA
:102E900008D828465DB1FFF79BFFE11C8A08394638
:102EA00000F00BFB2046BDE8F0811021ECE7FFF7B6
:102EB0009BFFF2E72DE9F04115460E46074600F06C
:102EC00005FB044600203DB12A4631463846FFF74F
:102ED000D4FF08B9002D03D1216801F01001216051
:102EE000BDE8F08110B500F0F1FA016801F01901B8
:102EF000016010BD10B500F0E9FA0421016010BDB9
:102F000010B500F0E3FA402181600268242191436A
:102F1000016010BD2DE9F041144688460746FFF7D1
:102F200075FF0646384600F0D1FA054600213846BE
:102F3000FFF787FFB44200D810B10020BDE8F08150
:102F40003846FFF745FF0146E01C8208404600F086
:102F5000B4FAEC60022028602046EFE702494A6894
:102F600002434A607047000000800A400346072180
:102F700001F1080223FA02F0C20701D048B27047FB
:102F8000491E0029F4DC4FF0FF30704702484168C9
:102F9000806808407047000000800A4002480168CD
:102FA00041F00C010160704700800A40024801684E
:102FB00001F480610160704700800A4002490A689C
:102FC000026049684160704700A00A4003490A68EE
:102FD00042F480720A6008617047000000800A4075
:102FE0000148FFF7FBBD00001C090020FEE70000C0
:102FF00070B54FF48064002221460120FDF770FF78
:10300000074D002221462846FEF7D0F9012221462D
:103010002846FEF7DBF903490020087070BD000068
:1030200000200B407800002070B50646002401EB1C
:10303000810509E0642000F016FF641CA4B2B4EB23
:10304000450F01D1662070BDFEF706F8B042F1D001
:10305000002070BD10B50120FEF7F2F9BDE8104068
:10306000FFF75FBA014803C800F054B870000020B1
:103070008BB210B5104900240A8801462046FDF79E
:1030800061FF08B1652010BD4FF4FA7008E0641CC0
:10309000E4B2322C03D309A000F020FAF2E7642056
:1030A00000F0E1FE0120FEF7CBF90028EFD0BDE8EB
:1030B00010400120FEF7C4B96C000020536F636B11
:1030C00065744944206661696C65640D0A000000FE
:1030D000FEF758B910B501F04BFA094C0748042126
:1030E00060603230A06007A000F08CF80A2106A0D2
:1030F00000F078F842F2BF20208010BD401400207C
:103100006C000020363536007775777577757765F2
:103110006900000070B50024FEF7EEF94FF42F753A
:103120000DE0FFF72FF90A2C04D30BA000F0D6F91D
:10313000672070BD284600F096FE641CE4B2FEF7DE
:103140008BF90028EDD00DA000F0C8F942F2C320A1
:1031500000F068F8002070BD576C616E53746174A4
:103160007573B5C8B4FDB3ACCAB1A1A3CEDEB7A820
:10317000B5C7C2BCA1A30D0A000000004C6F67696F
:103180006E2E2E2E0000000010B500F0D3FE00F0D1
:10319000BBFEA0F57F41FF390CD0C0070AD000F07C
:1031A0008FFE38B1810703D0C01C4FF6FC71084078
:1031B00000F098FFBDE8104000F08ABF70B51446DB
:1031C0000E46054600F0B6FE45B1A2B2314628468D
:1031D000FFF7ECF900F07CFF204670BD00F078FFAF
:1031E000002070BD70B50C46054632210448FDF73D
:1031F00038F822462946BDE870400148FDF718B866
:103200007214002070B50C46054632210448FDF7C3
:1032100028F822462946BDE870400148FDF708B865
:103220004014002010B50146002442F2C320FDF7EF
:10323000B3FF4FF4FA7009E0641CE4B2322C04D3FB
:103240000CA000F04BF9652010BD642000F00BFECF
:103250000020FEF7F5F80028EED00020FEF7F0F889
:10326000014609A000F03AF9BDE810400020FEF741
:10327000E7B80000536F636B657449442066616969
:103280006C65640D0A0000007365727665722073C8
:103290006F636B6574202564000000001CB500227C
:1032A0000092012301920DF800309DF800101046A5
:1032B00061F310409DF8011061F351409DF8021038
:1032C00061F392409DF8031061F3D3409DF8041020
:1032D00061F314509903FDF7ADFE1CBD70B50446B3
:1032E0000020FFF793FD0546206A411C16D094F894
:1032F0002410012912D1A84202D3401B206205E00C
:10330000054600202062022084F824002A4600207E
:10331000E169FFF7FFFDE0692844E06170BD10B589
:1033200004460020607649B1012909D0022910D154
:10333000207900F00F00FFF770FD01E094F83400F1
:10334000207604F11800E06102202062012084F858
:10335000240010BD70B5044600880125B0F5A06FAB
:103360004DD020DCB0F5807F42D00BDC80283BD0F4
:1033700081283BD0822864D102212046BDE87040DC
:10338000FFF7CDBFB0F5817F34D0B0F5407F33D0AB
:10339000A0F54070023854D1012202212046BDE838
:1033A000704000F065B8B0F5106F4DD00FDCB0F58F
:1033B000D06F2BD0A0F5C060813843D0A0F58070CD
:1033C000FF383ED104F13000C4E9070537E0A0F52D
:1033D000206081384AD0802833D1A16D002930D0B7
:1033E0002046BDE8704008470021C6E70121C4E738
:1033F000002202E00022D0E701220021CEE7A078DF
:10340000FFF7E4FD84F8245005202CE0E078012843
:103410000FD002280FD0032813D1A0786169814210
:103420000FD9216951F8200000280AD0E061007806
:1034300004E0A068FAE7E068E0614088206284F870
:10344000245070BD616DC9E7A07884F8300084F81D
:103450002450012568B2D4F88410FFF7FBFC6D1CE2
:10346000082DF7D3062084F8320070BDE16DB5E772
:1034700070B50446012661B1022909D1207910F006
:103480000F0503D07AB12846FFF73AFD84F824608F
:1034900070BDA0780128FBD12434207C62F3410068
:1034A0002074267070BDA06B0028EFD12846FFF76E
:1034B00081FC68B2FFF776FCE8E7521E04D450F8AE
:1034C000223041F82230F8E770470000024900EB53
:1034D000800001EB8000704714800A400FB4054B58
:1034E00010B503A9044A029800F018F810BC5DF862
:1034F00014FB0000913E00003000002002E008C8EC
:10350000121F08C1002AFAD170477047002001E05D
:1035100001C1121F002AFBD1704700002DE9FF4FA7
:103520008DB00F4605460026DEE1252874D1002423
:103530006D1CF149A246A14601222B78203B02FADC
:1035400003F0084202D004436D1CF6E728782A28CD
:1035500010D06FF02F022878A0F13001092915D87A
:103560000AEB8A0102EB410144F0020400EB010A7C
:103570006D1CF0E757F804ABBAF1000F03DA44F41E
:103580000054CAF1000A44F002046D1C28782E2869
:1035900017D115F8010F44F004042A280ED06FF05B
:1035A0002F022878A0F1300109290AD809EB8901F6
:1035B00002EB410100EB01096D1CF2E757F8049B97
:1035C0006D1C28786C280FD006DC4C2817D0682892
:1035D0000DD06A2814D104E0742810D07A280FD1B5
:1035E0000DE044F400140AE044F4801401E044F4D3
:1035F00040146978814202D16D1C04F580146D1C61
:103600002A786E2A20D00DDC632A33D005DC002A0C
:103610006FD0582A12D1A2E011E0642A6AD0692A38
:103620000CD167E0732A2FD004DC6F2A6FD0702A88
:1036300004D199E0752A6BD0782A6AD01046DDE96A
:103640000F129047761C4EE1C4F30250022806D0B8
:1036500003280AD0042801CF0AD0066043E101CF35
:103660004FEAE671C0E900613DE101CF06803AE131
:10367000067038E117F8040B8DF8000000208DF873
:103680000100EB46012003E057F804BB4FF0FF3088
:1036900061074FF0000102D40DE008F101018846F6
:1036A00049450FDA8045F8DB1BF808100029F4D1F2
:1036B00008E008F1010188468142FADB1BF8081096
:1036C0000029F6D1DDE90F23AAEB08008146214647
:1036D00000F03BF9304400EB080604E0DDE90F128E
:1036E0001BF8010B9047B8F10108F7D22146484674
:1036F000F4E0FDE00A21C4F302534FF0000B0891FF
:10370000022B07D001CFC117032B09D00AE034E008
:1037100023E024E0FF1D27F00707F7E8020105E09A
:1037200000B2C117042B01D140B2C117002907DA3A
:103730004FF0000CD0EB0C006CEB01012D2302E0EC
:10374000230504D52B238DF82430012303E0E30760
:1037500001D02023F7E7984650E00A210EE0102020
:103760004FF0000B08900CE010214FF0000B44F0DC
:1037700004044FF00809089103E008214FF0000B02
:103780000891C4F30253022B04D001CF0021032B74
:1037900006D006E0FF1D27F00707F7E8020103E067
:1037A00080B2042B00D1C0B24FF00008230725D50A
:1037B000702A2AD0DDF820C08CF0100C5CEA0B0CCB
:1037C00009D150EA010306D030238DF824308DF85A
:1037D000252002239846DDF820C08CF0080C5CEA16
:1037E0000B0C0BD150EA010301D1630706D530233E
:1037F0008DF824304FF00108A9F10109582A09D0A9
:103800003EA20B9208AA0A9211E040238DF82430C0
:103810000123DFE73EA2F4E75B46089AFDF74DF887
:103820000B9B9B5C0A9AA2F101020A92137050EA68
:103830000102F1D10A98ADEB000000F1200B600706
:1038400002D524F4803401E04FF00109D94502DDAE
:10385000A9EB0B0000E0002000EB0B0141440890B5
:10386000AAEB010AE00306D4DDE90F232146504606
:1038700000F06BF80644002008E009A911F80900DF
:10388000DDE90F129047761C09F1010081464045A1
:10389000F3DBE0030CD5DDE90F232146504600F0B1
:1038A00054F8064404E0DDE90F1230209047761CFE
:1038B0000899481E08900029F5DC08E00A980A9942
:1038C0000078491C0A91DDE90F129047761CBBF184
:1038D0000001ABF1010BF1DC21465046DDE90F237D
:1038E00000F020F806446D1C287800287FF41DAEF7
:1038F00011B03046BDE8F08F092801003031323375
:10390000343536373839616263646566000000001B
:103910003031323334353637383941424344454605
:10392000000000002DE9F041044600251E46174620
:10393000880405D406E039462020B04705F101058A
:10394000641EF8D52846BDE8F0812DE9F041044613
:1039500000251E469046C80301D5302700E02027E9
:10396000880405D506E041463846B04705F1010513
:10397000641EF8D52846BDE8F081000070B50078D7
:10398000134C00074FF000050ED5A068401CA06046
:10399000032808D301210220FDF708FE012103209E
:1039A000FDF704FEA56070BD6068401C60600F28D4
:1039B000F9D3607818B900210220FDF7F7FD2078CF
:1039C00018B900210320FDF7F1FD656070BD00000E
:1039D0001800002070B52C4C2C4800F0BFFA0028CD
:1039E0004CD14FF4487000F03EFA42F2BA2128A0C0
:1039F00000F070FD0546014629A0FFF76FFD652D1B
:103A000031D0284600F086FC65282CD028A0FFF78E
:103A100065FDA178284600F05FFC2AA0FFF75EFD57
:103A2000194928460C3100F08BFA65281BD001207B
:103A3000A070642000F017FA26A0FFF74FFD13498D
:103A4000284600F038FC65280DD00020A07024A086
:103A5000FFF744FDFFF7FEFA00F0B8F80A480C3013
:103A6000FDF7A6FBB8E74FF47A7000F0FCF900F020
:103A7000ADF81FA0FFF732FDFFF7ECFA4FF4FA7034
:103A800000F0F1F9652070BD1800002094060020B8
:103A90003132312E34322E3139302E31313700006F
:103AA000736F63656B66643D25640D0A000000005A
:103AB000636865636B204D41432073756363657371
:103AC000730D0A0067657420636F6D616E640D0A83
:103AD0000000000073656E6420646174610D0A006B
:103AE000646973636F6E6E6563742E2E2E0D0A000B
:103AF0006572723A3A646973636F6E6E6563742EB1
:103B00002E2E0D0A000000002DE9F05F15461E461E
:103B100004460F46154A164BFCF70CFE82468B46B0
:103B2000144A154B20463946FCF704FE2A46334614
:103B3000FCF700FE88460227814600240F492046F4
:103B40002A463346FCF7F6FD641CBC42F8DB0C4AFF
:103B50000C4BFCF7EFFD4A464346FCF744FD52464A
:103B60005B46BDE8F05FFCF73EBD000085EB51B859
:103B70001E85EF3F691D554D1075FF3E0000F03F5B
:103B80001A170E846401333F10B58A7983799A42FB
:103B900004D10022835C8C5CA34204D004A0FFF714
:103BA0009DFC652010BD521C062AF3DB002010BDD1
:103BB000636F6E6E65637420756E73756363657392
:103BC0007366756C6C792E0A0000000010B500F069
:103BD0000FFD03486421C068BDE81040FCF741BBFD
:103BE0000C070020104900200870487088701231BE
:103BF0000A8822F0FF02FB3222F4FE4202F5206224
:103C00000A8008710948018821F0FF01FB3121F485
:103C1000FE4101F5206121F4004101801021418025
:103C20004FF6FF71C1607047180000209406002015
:103C30002DE9F041DFF848E000240EF104030546C9
:103C400093E8881063220CE0E018B0FBF2F602FB68
:103C500016001CF800602E55401C874204F1010438
:103C600001D08C42F0D3E018B0FBF2F102FB11005E
:103C7000CEF8040000F0F0FA2046BDE8F081000024
:103C80000C0700202DE9F041DFF848C000248646EB
:103C9000DCE902356322DCF804700CE0E018B0FBCC
:103CA000F2F602FB16001EF804602E54401C8742F8
:103CB00004F1010401D08C42F0D3E018B0FBF2F122
:103CC00002FB1100CCF8080000F0C6FA2046BDE85F
:103CD000F08100000C07002038B504464068417AA6
:103CE0002DA0FFF7FBFB61682E4D487A232815D0E5
:103CF000282808D02A2849D0E8280BD1BDE8384028
:103D000029A0FFF7EBBB687828B1A878002801D17B
:103D1000087BA87038BD087B687038BD087B012817
:103D20002DD12870087C0090CB7B8A7B497B21A019
:103D3000FFF7D4FB6068017D0091C37C827C417CED
:103D400021A0FFF7CBFB6068017E0091C37D827DDF
:103D5000417D24A0FFF7C2FB6068017F0091C37E14
:103D6000827E417E26A0FFF7B9FB606890F82010A4
:103D70000091C37F827F417F27A0FFF7AFFB606880
:103D8000017BBDE838402BA0FFF7A8BB2DA0FFF7B3
:103D9000A5FB0020BDE70000434F44453A253032E3
:103DA000580D0A007C000020636F6E6E6563742EF0
:103DB0002E2E000049502069733A25642E25642E6A
:103DC00025642E25640D0A006E65746D61736B2089
:103DD00069733A3A25642E25642E25642E25640DD8
:103DE0000A000000676174657761792069733A3A67
:103DF00025642E25642E25642E25640D0A000000FE
:103E0000444E53312069733A3A25642E25642E2599
:103E1000642E25640D0A0000444E53322069733A23
:103E20003A25642E25642E25642E25640D0A0D0A7C
:103E30000000000073617461753A253032580D0A34
:103E400000000000536F636B657420436C6F7365F3
:103E50000D0A000040688178C278083002EB012129
:103E600089B2FEF791BD80B2FEF718B805E01421C3
:103E70000A00A1F1010189B2FAD1401EF7D27047C0
:103E800003C8814201DD081A00E0401A80B2704781
:103E900010B5044681B24FF08040FEF793FE2046F5
:103EA00010BD000070B5054CA06800F0B0F8257892
:103EB000A068FDF70FFE284670BD0000000000203E
:103EC00010B50020FEF750FC0220FEF759FCFF2041
:103ED000FEF756FC0446FF20FEF752FC44EA00249D
:103EE0000120FEF741FC204610BD000005490128D5
:103EF00003D0022803D065207047086900E04869B4
:103F000000F085B80000002010B50020FEF72CFC62
:103F10000620FEF735FCFF20FEF732FC0446FF20AA
:103F2000FEF72EFC44EA00240120FEF71DFC20468B
:103F300010BD00000148C06800F069B80000002012
:103F400010B500220A608A801346062200F0C6F8E7
:103F5000401C01D0002010BD652010BD00F03ABA11
:103F60000CB50549D1E90021CDE900210260BDF879
:103F70000410818001200CBDD04600000D49096865
:103F8000A1F51062C43A13D0426841F270739A42AC
:103F90000CDC0068002809DB41F28832904205DC25
:103FA000401A0F2802DC10F10F0F01DA00207047D1
:103FB000012070476000002000B50246FFF760FF57
:103FC000C82803D3D2E90001814201DA002000BDF4
:103FD000012000BD10B50020FDF744FABDE81040F7
:103FE0000120FDF73FBA012804D0022804D10120A6
:103FF000FDF764BA0020FBE77047012804D00228CF
:1040000004D10120FDF768BA0020FBE7704738B5FE
:10401000054600246A460A212846FDF7FFFC9DF864
:104020000000002806D06420FDF738FF641C322C05
:10403000F0D3652038BD000010B5FDF70DFCFCF78E
:104040009FFFFDF7EEFBFDF7E7F8FFF7C3FF00F07A
:10405000F5FA00F0D9FAFDF7F5FA0123054A002137
:104060000548FDF77BFD05A0FFF738FAFDF75CFD7D
:10407000002010BD90060020894500007374617215
:1040800074696E670D0A000070B50122084D540274
:1040900021462846FDF7BBF94FF4FA70FDF7FEFE06
:1040A00021462846BDE870400022FDF7B0B9000067
:1040B00000200B400549012804D0022804D148699A
:1040C000FDF708BD0869FBE770470000000000200D
:1040D0000148C068FDF7FEBC0000002008461146FC
:1040E000FEF7AABA70B59CB0064601201990CDF82B
:1040F00068D019AD0020FEF737FB1020FEF740FB1B
:10410000002405E0FF20FEF73BFB69680855641CAE
:10411000B442F7D30120FEF727FB68680178AA298B
:1041200002D000201CB070BD40780128284603D082
:10413000FFF790FE0120F5E7FFF7CEFDFAE72DE946
:10414000F04115460E46074600240DE00121384691
:10415000FEF70CFD012803D13846FEF726FD305549
:104160000120FDF79BFE641CAC42EFD3BDE8F0815B
:104170002DE9FF478246002000900190029033A075
:10418000334F006803906C46032203A9384600F0C1
:10419000ADF80A20FFF767FE0A2221463846FFF7EE
:1041A000CEFF0A20FDF77AFE9DF800004FF0FF38A1
:1041B0005A280BD19DF801005A2807D19DF802001A
:1041C000452803D19DF80300042823D04046411C14
:1041D0001BD0FCF721FBDFF87C904946FCF7C3F9C4
:1041E00006462846FCF73AFB04460F463046FCF7E5
:1041F00035FB22463B46FFF787FCFCF742FB49466E
:10420000FCF77BF9FCF711FB06469DF800005A28E5
:1042100004D00FE0BDF8040040BAD8E79DF80100D3
:104220005A2807D19DF80200452803D19DF80300C4
:10423000042807D04446601C00D02546CAE9005631
:10424000BDE8FF87BDF8060044BAF4E7A515BA003B
:10425000000004400000C842074988684968884255
:1042600001D1002005E0401C884201D1022000E07D
:104270000120FEF79DBB00000C07002070B50B4D20
:1042800006460C466868FFF7C2FE3046FFF7B5FEEB
:10429000A0B2FDF703FE3046FFF7A5FE6868FDF704
:1042A00019FCA0B2BDE87040FDF7F8BD0000002089
:1042B000C0B2FEF783BF10B5044600231422FFF7F7
:1042C000F7FF401C06D0204600F0F4F9401C01D056
:1042D000002010BD652010BD034A00235171062245
:1042E0000149FFF7E5BF00002A0000202DE9F04159
:1042F00015460E460746002407E0315D3846FEF7B6
:1043000061FC0120FDF7CAFD641CAC42F5D3BDE899
:10431000F08100007FB500240546009468460194B2
:10432000FFF71EFE01218DF8061011A0FFF7D6F849
:104330000023072269462846FFF7BAFF02944FF48C
:1043400096700394FFF78FFD0CA0FFF7C7F80023CA
:10435000072202A92846FFF7C1FE652806D002A958
:104360006846FFF711FC652800D0002004B070BD3E
:1043700073656E64204D41430D0A000072656164EF
:10438000206D61630D0A000070B5054C0546A068FC
:10439000FFF73DFE2570A068BDE87040FDF79ABBB1
:1043A000000000200A49022809D003280AD0042866
:1043B0000BD0052802D140F6C410486070474FF476
:1043C000FA70FAE74FF47A70F7E740F2DC50F4E75E
:1043D0008000002030B585B0044602A8FCF7C0FE7E
:1043E000DDE90201CDE90001A16000986060FCF701
:1043F00045FE9DF8105060F3C305FCF761FE60F3C5
:104400004105FCF789FE60F300056846FFF7D4FD1F
:1044100060F38205FCF760FE60F34515FCF756FE7D
:1044200060F38615FCF796FE60F30415FCF742FE78
:1044300060F3C7158DF81050BDF810002082D4E944
:104440000112638804A0FFF749F804F11000FFF798
:1044500095FA05B0002030BD5B7225642C6225649E
:104460005D202564200D0A002DE9F041174F054617
:10447000174E7C784FF44878A5420FD820E00122EF
:1044800040213046FCF7C3FF4046FDF707FD002200
:1044900040213046FCF7BBFF1434E4B2AC42EED30B
:1044A00010E0012220213046FCF7B1FF4046FDF725
:1044B000F5FC002220213046FCF7A9FF143CE4B2B1
:1044C000AC42EED87C70BDE8F081000068000020AE
:1044D00000200B40FEF7CCBD10B5002202210120C8
:1044E000FCF7FEFC214C012202212046FCF75EFF76
:1044F000002208210120FCF7F3FC012208212046BC
:10450000FCF754FF002210210120FCF7E9FC0022F7
:1045100010212046FCF74AFF012210212046FCF71B
:1045200055FF002204210120FCF7DAFC01220421BE
:104530002046FCF73BFF012100220846FCF7D0FC97
:10454000012211462046FCF731FF012204212046BA
:10455000FCF75DFF012211462046FCF758FF20467C
:104560000022BDE810400221FCF751BF00200B40A3
:1045700010B5FFF7B1FF0122BDE81040042101484A
:10458000FCF745BF00200B4010B56FF00400FEF7AC
:10459000CFF942F22830FEF7F3F90120FEF7E4F9F3
:1045A0000120FEF7D1F906230B4A00210B48FDF745
:1045B000D5FA07230A4A00210A48FDF7CFFA082353
:1045C000094A00210948FDF7C9FA00B1FEE7BDE834
:1045D0001040FF20FDF752BB88020020A12A0000F6
:1045E00088040020ED2A0000A0050020CD2A00004C
:1045F00004480021017041608160A0F16401C16044
:10460000704700000C07002010B50120FDF7E4F909
:10461000094C60600120FDF7DFF9A0600120FDF783
:10462000DBF920610120FDF7D7F960610120FDF77A
:10463000D3F9E06010BD0000000000203EB500246A
:1046400022464FF4864101231046FCF7F3FC062274
:104650000C210020FCF744FC062230210020FCF74E
:104660003FFC4FF4E13000900120ADF80400ADF8BC
:104670000840ADF80640ADF80A4084076946204678
:10468000FEF779FA01212046FEF79EFA0121204625
:10469000FEF78EFA064C69462046FEF76CFA0121B9
:1046A0002046FEF791FA01212046FEF781FA3EBD31
:1046B000000004401CB5002306226946FFF70EFDEA
:1046C000401C01D000201CBD4FF0FF301CBD00007D
:1046D0005E607F9ACC91000002020000000002049C
:1046E000040100000F010200000200080004008025
:1046F0000200040000000B4000200B4000400B4073
:1047000000600B4000800B400000004000000400EF
:104710000600000008000600001000400200000231
:104720000600020000040600000001000200010073
:10473000030001000200010004000100020001006A
:104740000300010002000100050001000200010059
:10475000030001000200010004000100020001004A
:104760000300010002000100060001000200010038
:10477000030001000200010004000100020001002A
:104780000300010002000100050001000200010019
:10479000030001000200010004000100020001000A
:1047A00003000100020001000700010002000100F7
:1047B00003000100020001000400010002000100EA
:1047C00003000100020001000500010002000100D9
:1047D00003000100020001000400010002000100CA
:1047E00003000100020001000600010002000100B8
:1047F00003000100020001000400010002000100AA
:104800000300010002000100050001000200010098
:104810000300010002000100040001000200010089
:104820000300010002000100DDDDDDDDDCBBBBDDDE
:10483000DDDDDDDDDDDDDDDD988888888888888840
:104840007777777777888888855555566666666660
:10485000666666666668888883333332222222223F
:10486000222222222228888D884800000000002071
:104870008C000000FC340000144900008C00002073
:104880001C1600000C3500000000000000000000B5
:104890000000000000000000000000000000000018
:1048A0000000000000000000000000000000000008
:1048B00000000000000000000000000000000000F8
:1048C00000000000000000000000000000000000E8
:1048D00000000000000000000000000000000000D8
:1048E00000000000000000000000000000000000C8
:1048F0000032000000000000000000000000000086
:1049000000000000000000000000000000000000A7
:0449100000000000A3
:0400000500000155A1
:00000001FF
